{
  "contractName": "NFTMarket",
  "abi": [
    {
      "inputs": [
        {
          "internalType": "uint256",
          "name": "",
          "type": "uint256"
        }
      ],
      "name": "seller",
      "outputs": [
        {
          "internalType": "address",
          "name": "",
          "type": "address"
        }
      ],
      "stateMutability": "view",
      "type": "function"
    },
    {
      "inputs": [
        {
          "internalType": "uint256",
          "name": "tokenId",
          "type": "uint256"
        },
        {
          "internalType": "address",
          "name": "NFTAddress",
          "type": "address"
        },
        {
          "internalType": "address",
          "name": "to",
          "type": "address"
        }
      ],
      "name": "buyNFT",
      "outputs": [
        {
          "internalType": "bool",
          "name": "",
          "type": "bool"
        }
      ],
      "stateMutability": "payable",
      "type": "function"
    },
    {
      "inputs": [
        {
          "internalType": "address",
          "name": "operator",
          "type": "address"
        },
        {
          "internalType": "address",
          "name": "from",
          "type": "address"
        },
        {
          "internalType": "uint256",
          "name": "tokenId",
          "type": "uint256"
        },
        {
          "internalType": "bytes",
          "name": "data",
          "type": "bytes"
        }
      ],
      "name": "onKIPReceived",
      "outputs": [
        {
          "internalType": "bytes4",
          "name": "",
          "type": "bytes4"
        }
      ],
      "stateMutability": "nonpayable",
      "type": "function"
    }
  ],
  "bytecode": "0x608060405234801561001057600080fd5b5061075b806100206000396000f3fe608060405260043610610051576000357c01000000000000000000000000000000000000000000000000000000009004806360cf796d14610056578063992b2d9f14610093578063aacdfe6f146100c3575b600080fd5b34801561006257600080fd5b5061007d600480360381019061007891906104b6565b610100565b60405161008a9190610574565b60405180910390f35b6100ad60048036038101906100a8919061058f565b61017e565b6040516100ba91906105fd565b60405180910390f35b3480156100cf57600080fd5b506100ea60048036038101906100e59190610618565b610295565b6040516100f79190610654565b60405180910390f35b60008360008085815260200190815260200160002060006101000a81548173ffffffffffffffffffffffffffffffffffffffff021916908373ffffffffffffffffffffffffffffffffffffffff1602179055507fd64b154b34761ce9946266409e9c2bebaa37548607b15201aee8102fe4a77e609050949350505050565b60008060008086815260200190815260200160002060009054906101000a900473ffffffffffffffffffffffffffffffffffffffff1690508073ffffffffffffffffffffffffffffffffffffffff166108fc60019081150290604051600060405180830381858888f193505050501580156101fd573d6000803e3d6000fd5b508373ffffffffffffffffffffffffffffffffffffffff1663b88d4fde3033886040518463ffffffff167c0100000000000000000000000000000000000000000000000000000000028152600401610257939291906106db565b600060405180830381600087803b15801561027157600080fd5b505af1158015610285573d6000803e3d6000fd5b5050505060019150509392505050565b60006020528060005260406000206000915054906101000a900473ffffffffffffffffffffffffffffffffffffffff1681565b6000604051905090565b600080fd5b600080fd5b600073ffffffffffffffffffffffffffffffffffffffff82169050919050565b6000610307826102dc565b9050919050565b610317816102fc565b811461032257600080fd5b50565b6000813590506103348161030e565b92915050565b6000819050919050565b61034d8161033a565b811461035857600080fd5b50565b60008135905061036a81610344565b92915050565b600080fd5b600080fd5b6000601f19601f8301169050919050565b7f4e487b7100000000000000000000000000000000000000000000000000000000600052604160045260246000fd5b6103c38261037a565b810181811067ffffffffffffffff821117156103e2576103e161038b565b5b80604052505050565b60006103f56102c8565b905061040182826103ba565b919050565b600067ffffffffffffffff8211156104215761042061038b565b5b61042a8261037a565b9050602081019050919050565b82818337600083830152505050565b600061045961045484610406565b6103eb565b90508281526020810184848401111561047557610474610375565b5b610480848285610437565b509392505050565b600082601f83011261049d5761049c610370565b5b81356104ad848260208601610446565b91505092915050565b600080600080608085870312156104d0576104cf6102d2565b5b60006104de87828801610325565b94505060206104ef87828801610325565b93505060406105008782880161035b565b925050606085013567ffffffffffffffff811115610521576105206102d7565b5b61052d87828801610488565b91505092959194509250565b60007fffffffff0000000000000000000000000000000000000000000000000000000082169050919050565b61056e81610539565b82525050565b60006020820190506105896000830184610565565b92915050565b6000806000606084860312156105a8576105a76102d2565b5b60006105b68682870161035b565b93505060206105c786828701610325565b92505060406105d886828701610325565b9150509250925092565b60008115159050919050565b6105f7816105e2565b82525050565b600060208201905061061260008301846105ee565b92915050565b60006020828403121561062e5761062d6102d2565b5b600061063c8482850161035b565b91505092915050565b61064e816102fc565b82525050565b60006020820190506106696000830184610645565b92915050565b6106788161033a565b82525050565b600082825260208201905092915050565b7f3078303000000000000000000000000000000000000000000000000000000000600082015250565b60006106c560048361067e565b91506106d08261068f565b602082019050919050565b60006080820190506106f06000830186610645565b6106fd6020830185610645565b61070a604083018461066f565b818103606083015261071b816106b8565b905094935050505056fea2646970667358221220f30e2e38a15b4c8aa7b907e8cc1c97419db2c0d359c83acbbd435e5dfe4510c764736f6c634300080a0033",
  "immutableReferences": {},
  "source": "pragma solidity >=0.4.24 <=0.8.10;\r\nimport \"./NFTSimple.sol\";\r\n\r\n// \r\ncontract NFTMarket {\r\n    mapping(uint256 => address) public seller;\r\n\r\n    function buyNFT(uint256 tokenId, address NFTAddress, address to) public payable returns (bool) {\r\n        address payable receiver = payable(address(seller[tokenId]));\r\n        //address payable receiver = address(uint256(seller[tokenId]));\r\n\r\n        payable(receiver).transfer(1**16);\r\n\r\n        NFTSimple(NFTAddress).safeTransferFrom(address(this), msg.sender, tokenId, '0x00');\r\n        return true;\r\n    }\r\n    function onKIPReceived(address operator, address from, uint256 tokenId, bytes memory data) public returns (bytes4){\r\n        seller[tokenId] = from;\r\n        return bytes4(keccak256(\"onKIPReceived(address, address, uint256, bytes)\"));\r\n    }\r\n}",
  "sourcePath": "C:\\DS\\flutter_app\\fint\\contracts\\NFTMarket.sol",
  "compiler": {
    "name": "solc",
    "version": "0.8.10+commit.fc410830.Emscripten.clang"
  },
  "schemaVersion": "3.4.3",
  "updatedAt": "2021-11-26T17:44:47.755Z",
  "devdoc": {
    "kind": "dev",
    "methods": {},
    "version": 1
  },
  "userdoc": {
    "kind": "user",
    "methods": {},
    "version": 1
  }
}