{
  "contractName": "NFTSimple",
  "abi": [
    {
      "inputs": [],
      "name": "name",
      "outputs": [
        {
          "internalType": "string",
          "name": "",
          "type": "string"
        }
      ],
      "stateMutability": "view",
      "type": "function"
    },
    {
      "inputs": [],
      "name": "symbol",
      "outputs": [
        {
          "internalType": "string",
          "name": "",
          "type": "string"
        }
      ],
      "stateMutability": "view",
      "type": "function"
    },
    {
      "inputs": [
        {
          "internalType": "uint256",
          "name": "",
          "type": "uint256"
        }
      ],
      "name": "tokenOwner",
      "outputs": [
        {
          "internalType": "address",
          "name": "",
          "type": "address"
        }
      ],
      "stateMutability": "view",
      "type": "function"
    },
    {
      "inputs": [
        {
          "internalType": "uint256",
          "name": "",
          "type": "uint256"
        }
      ],
      "name": "tokenURIs",
      "outputs": [
        {
          "internalType": "string",
          "name": "",
          "type": "string"
        }
      ],
      "stateMutability": "view",
      "type": "function"
    },
    {
      "inputs": [
        {
          "internalType": "address",
          "name": "to",
          "type": "address"
        },
        {
          "internalType": "uint256",
          "name": "tokenId",
          "type": "uint256"
        },
        {
          "internalType": "string",
          "name": "tokenURI",
          "type": "string"
        }
      ],
      "name": "mintWithTokenURI",
      "outputs": [
        {
          "internalType": "bool",
          "name": "",
          "type": "bool"
        }
      ],
      "stateMutability": "nonpayable",
      "type": "function"
    },
    {
      "inputs": [
        {
          "internalType": "address",
          "name": "from",
          "type": "address"
        },
        {
          "internalType": "address",
          "name": "to",
          "type": "address"
        },
        {
          "internalType": "uint256",
          "name": "tokenId",
          "type": "uint256"
        },
        {
          "internalType": "bytes",
          "name": "_data",
          "type": "bytes"
        }
      ],
      "name": "safeTransferFrom",
      "outputs": [],
      "stateMutability": "nonpayable",
      "type": "function"
    },
    {
      "inputs": [
        {
          "internalType": "address",
          "name": "owner",
          "type": "address"
        }
      ],
      "name": "ownedTokens",
      "outputs": [
        {
          "internalType": "uint256[]",
          "name": "",
          "type": "uint256[]"
        }
      ],
      "stateMutability": "view",
      "type": "function"
    },
    {
      "inputs": [
        {
          "internalType": "uint256",
          "name": "id",
          "type": "uint256"
        },
        {
          "internalType": "string",
          "name": "uri",
          "type": "string"
        }
      ],
      "name": "setTokenUri",
      "outputs": [],
      "stateMutability": "nonpayable",
      "type": "function"
    }
  ],
  "bytecode": "0x60806040526040518060400160405280600681526020017f4b6c6179746e00000000000000000000000000000000000000000000000000008152506000908051906020019062000051929190620000b4565b506040518060400160405280600481526020017f4b4c415900000000000000000000000000000000000000000000000000000000815250600190805190602001906200009f929190620000b4565b50348015620000ad57600080fd5b50620001c9565b828054620000c29062000193565b90600052602060002090601f016020900481019282620000e6576000855562000132565b82601f106200010157805160ff191683800117855562000132565b8280016001018555821562000132579182015b828111156200013157825182559160200191906001019062000114565b5b50905062000141919062000145565b5090565b5b808211156200016057600081600090555060010162000146565b5090565b7f4e487b7100000000000000000000000000000000000000000000000000000000600052602260045260246000fd5b60006002820490506001821680620001ac57607f821691505b60208210811415620001c357620001c262000164565b5b50919050565b61174480620001d96000396000f3fe608060405234801561001057600080fd5b50600436106100a5576000357c0100000000000000000000000000000000000000000000000000000000900480636c8b703f116100785780636c8b703f1461014457806395d89b4114610174578063b12ab40f14610192578063b88d4fde146101c2576100a5565b806306fdde03146100aa5780631caaa487146100c857806350bb4e7f146100f857806357f7789e14610128575b600080fd5b6100b26101de565b6040516100bf9190610d32565b60405180910390f35b6100e260048036038101906100dd9190610d9e565b61026c565b6040516100ef9190610e0c565b60405180910390f35b610112600480360381019061010d9190610f88565b61029f565b60405161011f9190611012565b60405180910390f35b610142600480360381019061013d919061102d565b61038c565b005b61015e60048036038101906101599190610d9e565b6103b8565b60405161016b9190610d32565b60405180910390f35b61017c610458565b6040516101899190610d32565b60405180910390f35b6101ac60048036038101906101a79190611089565b6104e6565b6040516101b99190611174565b60405180910390f35b6101dc60048036038101906101d79190611237565b61057d565b005b600080546101eb906112e9565b80601f0160208091040260200160405190810160405280929190818152602001828054610217906112e9565b80156102645780601f1061023957610100808354040283529160200191610264565b820191906000526020600020905b81548152906001019060200180831161024757829003601f168201915b505050505081565b60026020528060005260406000206000915054906101000a900473ffffffffffffffffffffffffffffffffffffffff1681565b6000836002600085815260200190815260200160002060006101000a81548173ffffffffffffffffffffffffffffffffffffffff021916908373ffffffffffffffffffffffffffffffffffffffff1602179055508160036000858152602001908152602001600020908051906020019061031a929190610bf6565b50600460008573ffffffffffffffffffffffffffffffffffffffff1673ffffffffffffffffffffffffffffffffffffffff168152602001908152602001600020839080600181540180825580915050600190039060005260206000200160009091909190915055600190509392505050565b806003600084815260200190815260200160002090805190602001906103b3929190610bf6565b505050565b600360205280600052604060002060009150905080546103d7906112e9565b80601f0160208091040260200160405190810160405280929190818152602001828054610403906112e9565b80156104505780601f1061042557610100808354040283529160200191610450565b820191906000526020600020905b81548152906001019060200180831161043357829003601f168201915b505050505081565b60018054610465906112e9565b80601f0160208091040260200160405190810160405280929190818152602001828054610491906112e9565b80156104de5780601f106104b3576101008083540402835291602001916104de565b820191906000526020600020905b8154815290600101906020018083116104c157829003601f168201915b505050505081565b6060600460008373ffffffffffffffffffffffffffffffffffffffff1673ffffffffffffffffffffffffffffffffffffffff16815260200190815260200160002080548060200260200160405190810160405280929190818152602001828054801561057157602002820191906000526020600020905b81548152602001906001019080831161055d575b50505050509050919050565b3373ffffffffffffffffffffffffffffffffffffffff168473ffffffffffffffffffffffffffffffffffffffff16146105eb576040517f08c379a00000000000000000000000000000000000000000000000000000000081526004016105e290611367565b60405180910390fd5b6002600083815260200190815260200160002060009054906101000a900473ffffffffffffffffffffffffffffffffffffffff1673ffffffffffffffffffffffffffffffffffffffff168473ffffffffffffffffffffffffffffffffffffffff161461068c576040517f08c379a0000000000000000000000000000000000000000000000000000000008152600401610683906113f9565b60405180910390fd5b610696848361079f565b600460008473ffffffffffffffffffffffffffffffffffffffff1673ffffffffffffffffffffffffffffffffffffffff168152602001908152602001600020829080600181540180825580915050600190039060005260206000200160009091909190915055826002600084815260200190815260200160002060006101000a81548173ffffffffffffffffffffffffffffffffffffffff021916908373ffffffffffffffffffffffffffffffffffffffff16021790555061075a84848484610a1b565b610799576040517f08c379a00000000000000000000000000000000000000000000000000000000081526004016107909061148b565b60405180910390fd5b50505050565b60006001600460008573ffffffffffffffffffffffffffffffffffffffff1673ffffffffffffffffffffffffffffffffffffffff168152602001908152602001600020805490506107f091906114da565b905060005b600460008573ffffffffffffffffffffffffffffffffffffffff1673ffffffffffffffffffffffffffffffffffffffff168152602001908152602001600020805490508110156109d557600460008573ffffffffffffffffffffffffffffffffffffffff1673ffffffffffffffffffffffffffffffffffffffff16815260200190815260200160002081815481106108905761088f61150e565b5b90600052602060002001548314156109c257600460008573ffffffffffffffffffffffffffffffffffffffff1673ffffffffffffffffffffffffffffffffffffffff16815260200190815260200160002082815481106108f3576108f261150e565b5b9060005260206000200154600460008673ffffffffffffffffffffffffffffffffffffffff1673ffffffffffffffffffffffffffffffffffffffff168152602001908152602001600020828154811061094f5761094e61150e565b5b906000526020600020018190555082600460008673ffffffffffffffffffffffffffffffffffffffff1673ffffffffffffffffffffffffffffffffffffffff16815260200190815260200160002083815481106109af576109ae61150e565b5b90600052602060002001819055506109d5565b80806109cd9061153d565b9150506107f5565b50600460008473ffffffffffffffffffffffffffffffffffffffff1673ffffffffffffffffffffffffffffffffffffffff16815260200190815260200160002050505050565b6000806060610a2986610be3565b610a3857600192505050610bdb565b8573ffffffffffffffffffffffffffffffffffffffff16636745782b7c01000000000000000000000000000000000000000000000000000000000233898888604051602401610a8a94939291906115ea565b604051602081830303815290604052907bffffffffffffffffffffffffffffffffffffffffffffffffffffffff19166020820180517bffffffffffffffffffffffffffffffffffffffffffffffffffffffff8381831617835250505050604051610af49190611672565b6000604051808303816000865af19150503d8060008114610b31576040519150601f19603f3d011682016040523d82523d6000602084013e610b36565b606091505b5080925081935050506000815114158015610bc45750636745782b7c0100000000000000000000000000000000000000000000000000000000027bffffffffffffffffffffffffffffffffffffffffffffffffffffffff191681806020019051810190610ba391906116e1565b7bffffffffffffffffffffffffffffffffffffffffffffffffffffffff1916145b15610bd457600192505050610bdb565b6000925050505b949350505050565b600080823b905060008111915050919050565b828054610c02906112e9565b90600052602060002090601f016020900481019282610c245760008555610c6b565b82601f10610c3d57805160ff1916838001178555610c6b565b82800160010185558215610c6b579182015b82811115610c6a578251825591602001919060010190610c4f565b5b509050610c789190610c7c565b5090565b5b80821115610c95576000816000905550600101610c7d565b5090565b600081519050919050565b600082825260208201905092915050565b60005b83811015610cd3578082015181840152602081019050610cb8565b83811115610ce2576000848401525b50505050565b6000601f19601f8301169050919050565b6000610d0482610c99565b610d0e8185610ca4565b9350610d1e818560208601610cb5565b610d2781610ce8565b840191505092915050565b60006020820190508181036000830152610d4c8184610cf9565b905092915050565b6000604051905090565b600080fd5b600080fd5b6000819050919050565b610d7b81610d68565b8114610d8657600080fd5b50565b600081359050610d9881610d72565b92915050565b600060208284031215610db457610db3610d5e565b5b6000610dc284828501610d89565b91505092915050565b600073ffffffffffffffffffffffffffffffffffffffff82169050919050565b6000610df682610dcb565b9050919050565b610e0681610deb565b82525050565b6000602082019050610e216000830184610dfd565b92915050565b610e3081610deb565b8114610e3b57600080fd5b50565b600081359050610e4d81610e27565b92915050565b600080fd5b600080fd5b7f4e487b7100000000000000000000000000000000000000000000000000000000600052604160045260246000fd5b610e9582610ce8565b810181811067ffffffffffffffff82111715610eb457610eb3610e5d565b5b80604052505050565b6000610ec7610d54565b9050610ed38282610e8c565b919050565b600067ffffffffffffffff821115610ef357610ef2610e5d565b5b610efc82610ce8565b9050602081019050919050565b82818337600083830152505050565b6000610f2b610f2684610ed8565b610ebd565b905082815260208101848484011115610f4757610f46610e58565b5b610f52848285610f09565b509392505050565b600082601f830112610f6f57610f6e610e53565b5b8135610f7f848260208601610f18565b91505092915050565b600080600060608486031215610fa157610fa0610d5e565b5b6000610faf86828701610e3e565b9350506020610fc086828701610d89565b925050604084013567ffffffffffffffff811115610fe157610fe0610d63565b5b610fed86828701610f5a565b9150509250925092565b60008115159050919050565b61100c81610ff7565b82525050565b60006020820190506110276000830184611003565b92915050565b6000806040838503121561104457611043610d5e565b5b600061105285828601610d89565b925050602083013567ffffffffffffffff81111561107357611072610d63565b5b61107f85828601610f5a565b9150509250929050565b60006020828403121561109f5761109e610d5e565b5b60006110ad84828501610e3e565b91505092915050565b600081519050919050565b600082825260208201905092915050565b6000819050602082019050919050565b6110eb81610d68565b82525050565b60006110fd83836110e2565b60208301905092915050565b6000602082019050919050565b6000611121826110b6565b61112b81856110c1565b9350611136836110d2565b8060005b8381101561116757815161114e88826110f1565b975061115983611109565b92505060018101905061113a565b5085935050505092915050565b6000602082019050818103600083015261118e8184611116565b905092915050565b600067ffffffffffffffff8211156111b1576111b0610e5d565b5b6111ba82610ce8565b9050602081019050919050565b60006111da6111d584611196565b610ebd565b9050828152602081018484840111156111f6576111f5610e58565b5b611201848285610f09565b509392505050565b600082601f83011261121e5761121d610e53565b5b813561122e8482602086016111c7565b91505092915050565b6000806000806080858703121561125157611250610d5e565b5b600061125f87828801610e3e565b945050602061127087828801610e3e565b935050604061128187828801610d89565b925050606085013567ffffffffffffffff8111156112a2576112a1610d63565b5b6112ae87828801611209565b91505092959194509250565b7f4e487b7100000000000000000000000000000000000000000000000000000000600052602260045260246000fd5b6000600282049050600182168061130157607f821691505b60208210811415611315576113146112ba565b5b50919050565b7f66726f6d20213d206d73672e73656e6465720000000000000000000000000000600082015250565b6000611351601283610ca4565b915061135c8261131b565b602082019050919050565b6000602082019050818103600083015261138081611344565b9050919050565b7f796f7520617265206e6f7420746865206f776e6572206f662074686520746f6b60008201527f656e000000000000000000000000000000000000000000000000000000000000602082015250565b60006113e3602283610ca4565b91506113ee82611387565b604082019050919050565b60006020820190508181036000830152611412816113d6565b9050919050565b7f4b495031373a207472616e7366657220746f206e6f6e204b495021265265636560008201527f6976657220696d706c656d656e74657200000000000000000000000000000000602082015250565b6000611475603083610ca4565b915061148082611419565b604082019050919050565b600060208201905081810360008301526114a481611468565b9050919050565b7f4e487b7100000000000000000000000000000000000000000000000000000000600052601160045260246000fd5b60006114e582610d68565b91506114f083610d68565b925082821015611503576115026114ab565b5b828203905092915050565b7f4e487b7100000000000000000000000000000000000000000000000000000000600052603260045260246000fd5b600061154882610d68565b91507fffffffffffffffffffffffffffffffffffffffffffffffffffffffffffffffff82141561157b5761157a6114ab565b5b600182019050919050565b61158f81610d68565b82525050565b600081519050919050565b600082825260208201905092915050565b60006115bc82611595565b6115c681856115a0565b93506115d6818560208601610cb5565b6115df81610ce8565b840191505092915050565b60006080820190506115ff6000830187610dfd565b61160c6020830186610dfd565b6116196040830185611586565b818103606083015261162b81846115b1565b905095945050505050565b600081905092915050565b600061164c82611595565b6116568185611636565b9350611666818560208601610cb5565b80840191505092915050565b600061167e8284611641565b915081905092915050565b60007fffffffff0000000000000000000000000000000000000000000000000000000082169050919050565b6116be81611689565b81146116c957600080fd5b50565b6000815190506116db816116b5565b92915050565b6000602082840312156116f7576116f6610d5e565b5b6000611705848285016116cc565b9150509291505056fea2646970667358221220c8cfe0bda58fb3f560005c88288be7746708fc753b41c94988d9d07daab2a82464736f6c634300080a0033",
  "immutableReferences": {},
  "source": "pragma solidity >=0.4.24 <=0.8.10;\r\n\r\ncontract NFTSimple {\r\n    string public name = \"Klaytn\";\r\n    string public symbol = \"KLAY\";\r\n\r\n    mapping(uint256 => address) public tokenOwner;\r\n    mapping(uint256 => string) public tokenURIs;\r\n\r\n    mapping(address => uint256[]) private _ownedTokens;\r\n\r\n    bytes4 private constant _KIP17_RECEIVED = 0x6745782b;\r\n\r\n    // \r\n    function mintWithTokenURI(address to, uint256 tokenId, string memory tokenURI) public returns(bool) {\r\n        tokenOwner[tokenId] = to;\r\n        tokenURIs[tokenId] = tokenURI;\r\n\r\n        _ownedTokens[to].push(tokenId);\r\n\r\n        return true;\r\n    }\r\n    // \r\n    function safeTransferFrom(address from, address to, uint256 tokenId, bytes memory _data) public {\r\n        require(from == msg.sender, \"from != msg.sender\");\r\n        require(from == tokenOwner[tokenId], \"you are not the owner of the token\");\r\n\r\n        _removeTokenFromList(from, tokenId);\r\n        _ownedTokens[to].push(tokenId);\r\n        tokenOwner[tokenId] = to;\r\n\r\n        require(\r\n            _checkOnKIP17Received(from, to, tokenId, _data), \"KIP17: transfer to non KIP!&Receiver implementer\"\r\n        );\r\n    }\r\n    function _checkOnKIP17Received(address from, address to, uint256 tokenId, bytes memory _data) internal returns (bool) {\r\n        bool success;\r\n        bytes memory returnData;\r\n\r\n        if(!isContract(to)) {\r\n            return true;\r\n        }\r\n        (success, returnData) = to.call(\r\n            abi.encodeWithSelector(\r\n                _KIP17_RECEIVED,\r\n                msg.sender,\r\n                from,\r\n                tokenId,\r\n                _data\r\n            )\r\n        );\r\n        if (returnData.length != 0 && abi.decode(returnData, (bytes4)) == _KIP17_RECEIVED)\r\n        {\r\n            return true;\r\n        }\r\n        return false;\r\n    }\r\n    function isContract(address account) internal view returns (bool) {\r\n        uint256 size;\r\n        assembly { size := extcodesize(account)}\r\n        return size > 0;\r\n    }\r\n    function _removeTokenFromList(address from, uint256 tokenId) private {\r\n        uint256 lastTokenIndex = _ownedTokens[from].length - 1;\r\n        for(uint256 i= 0; i < _ownedTokens[from].length; i++) {\r\n            if(tokenId == _ownedTokens[from][i]){\r\n                _ownedTokens[from][i] = _ownedTokens[from][lastTokenIndex];\r\n                _ownedTokens[from][lastTokenIndex] = tokenId;\r\n                break;\r\n            }\r\n        }\r\n        _ownedTokens[from].pop;\r\n        //_ownedTokens[from].length--;\r\n    }\r\n    function ownedTokens(address owner) public view returns (uint256[] memory) {\r\n        return _ownedTokens[owner];\r\n    }\r\n    function setTokenUri(uint256 id, string memory uri) public {\r\n        tokenURIs[id]=uri;\r\n    }\r\n}\r\n\r\n\r\n",
  "sourcePath": "C:\\DS\\flutter_app\\fint\\contracts\\NFTSimple.sol",
  "compiler": {
    "name": "solc",
    "version": "0.8.10+commit.fc410830.Emscripten.clang"
  },
  "schemaVersion": "3.4.3",
  "updatedAt": "2021-11-26T17:44:47.783Z",
  "devdoc": {
    "kind": "dev",
    "methods": {},
    "version": 1
  },
  "userdoc": {
    "kind": "user",
    "methods": {},
    "version": 1
  }
}